:020000040000fa
:0800000000560400000000009e
:020000040000fa
:080400000040da000000fe00dc
:020000040000fa
:0200000401f009
:04000c007bff000076
:020000040000fa
:0200000401f009
:040010007eff00006f
:020000040000fa
:0200000401f009
:0400140078ff000071
:020000040000fa
:0200000401f009
:04001800fdff0000e8
:020000040000fa
:0200000401f009
:04001c00deff000003
:020000040000fa
:1000080000020000000200000002000000020000e0
:1000180000020000000200000002000000020000d0
:1000280000020000000200000002000000020000c0
:1000380000020000000200000002000000020000b0
:020000040000fa
:020000040000fa
:10ac00000f8d200040012000303a88000300200012
:10ac1000203a800001f02f0081006000213a880076
:10ac2000103a80000050a600f9ff37000006eb0044
:10ac300000802000001188000040200010118800d2
:10ac4000c00120004011880021e2a8002342a80092
:10ac5000c9c2a900c9a2a900cba2a800f0ff2f0079
:10ac600010188800cba2a8000006eb0023002000eb
:10ac70003a0a20008f000700100cb10003003200d8
:10ac80008301e9007f003200f9ff3700200a20002d
:10ac900093000700400020009100070030002000d2
:10aca0008f000700b00420008d0007000007eb00b4
:10acb0007f000700900188007d00070003e1b700d6
:10acc0007b00070002e1b7000281bf00800278002c
:10acd0000002780076000700800678007400070004
:10ace00080017800000478000280200070000700d6
:10acf000005978008301e900fcff3a000e04e000ef
:10ad000003003200e004200075000700e7ff370071
:10ad10000d10a6000f0037003200e2000d003a00cf
:10ad20000201e2000b003a000280200040c0b300a4
:10ad30000059780000c0b3000059780060c5b30026
:10ad4000005978000059eb0000c0b30000597800aa
:10ad50000059eb00028020000d00a700070037001b
:10ad60000d10a700070037000d30a7003300370093
:10ad7000500520005a000700ccff3700fcff2f00d1
:10ad8000c8ff370091018000050078000808200006
:10ad9000110009004888d800c80a20000800e10016
:10ada00006003300380b20000040e10003003300b0
:10adb000000520004a000700bcff370005027800ac
:10adc0000c00a60004003700850abb002004240004
:10add000210007000006eb0003042000b2cabb00fc
:10ade000b25abb00b25abb008301e900fbff3a0034
:10adf0001000240018000700030420000280200037
:10ae000014c0ba003204e10009003a003440ba002c
:10ae10003204e10006003a003440ba003204e10096
:10ae200003003a008301e900f5ff3a009dff370077
:10ae3000600520002a0007009cff3700854abb0000
:10ae40000004240004000700924abb000000240014
:10ae50000100070093ff3700003b880050052000e9
:10ae6000303b8800a00a2000303b880061e7a80042
:10ae7000000000000000000061e7af00feff3700a7
:10ae800000000600cba2a9000f8d200003000700e0
:10ae90000221ef00cba2a90057ff37008560a9006f
:10aea0008580a9002022ef002222ef00000006008a
:10aeb0003a0a20008005eb002202ae0003003700b2
:10aec0003011800000074700000006008b05e900f4
:10aed000f9ff3a000a05e900f6ff3a00e9ff3700fa
:10aee0002322af00feff370024a2b70000000600b7
:020000040000fa
:08abf8000000ff000000ff0057
:020000040000fa
:10aef00000080000d000000000000000000000007a
:00000001FF
