:020000040000fa
:080000000054040000000000a0
:020000040000fa
:080400000040da000000fe00dc
:020000040000fa
:0200000401f009
:04000c00fbff0000f6
:020000040000fa
:0200000401f009
:040010007aff000073
:020000040000fa
:0200000401f009
:0400140078ff000071
:020000040000fa
:0200000401f009
:04001800f8ff0000ed
:020000040000fa
:0200000401f009
:04001c00deff000003
:020000040000fa
:1000080000020000000200000002000000020000e0
:1000180000020000000200000002000000020000d0
:1000280000020000000200000002000000020000c0
:1000380000020000000200000002000000020000b0
:020000040000fa
:020000040000fa
:10a800000f922000253a800004fe2f00048262008f
:10a81000243a880044012000343a8800243a800019
:10a820000460a1000470a100243a88000000000028
:10a83000153a80000402200004826200e00f5200fa
:10a84000faff32000006eb008e000700c9a2a80044
:10a85000c9c2a800cba2a800080032002300200033
:10a860003a0a200093000700100cb10003003200e8
:10a870008301e9007f003200f9ff3700200a200041
:10a8800097000700400020009500070030002000de
:10a8900093000700b0042000910007000007eb00c0
:10a8a00083000700900188008100070003e1b700e2
:10a8b0007f00070002e1b7000281bf00800278003c
:10a8c000000278007a000700800678007800070010
:10a8d00080017800000478000285200074000700e1
:10a8e000005978008301e900fcff3a000e04e00003
:10a8f00003003200e004200079000700e7ff370082
:10a900000d10a6000f0037003200e2000d003a00e3
:10a910000201e2000b003a000285200040c0b300b3
:10a920000059780000c0b3000059780040c5b3005a
:10a93000005978000059eb0000c0b30000597800be
:10a940000059eb00028520000d00a700070037002a
:10a950000d10a700070037000d30a70033003700a7
:10a96000500520005e000700ccff3700fcff2f00e1
:10a97000c8ff37009101800005007800080820001a
:10a98000110009004888d800880a20000800e1006a
:10a9900006003300f80a20000040e1000300330005
:10a9a000000520004e000700bcff370005027800bc
:10a9b0000c00a60004003700850abb002004240018
:10a9c000210007000006eb0003042000b2cabb0010
:10a9d000b25abb00b25abb008301e900fbff3a0048
:10a9e0001000240018000700030420000285200046
:10a9f00014c0ba003204e10009003a003440ba0041
:10aa00003204e10006003a003440ba003204e100aa
:10aa100003003a008301e900f5ff3a009dff37008b
:10aa2000600520002e0007009cff3700854abb0010
:10aa30000004240004000700924abb000000240028
:10aa40000100070093ff3700003b880050052000fd
:10aa5000303b8800a00a2000303b880061e7a80056
:10aa6000000000000000000061e7af00feff3700bb
:10aa7000000006000f922000080007000221ef00ee
:10aa80005dff37002062a900a0012000401188006e
:10aa900021e2a8002342a800000006008560a9006a
:10aaa0008580a9002022ef002222ef00000006008e
:10aab0003a0a20008005eb002202ae0003003700b6
:10aac0003011800000074700000006008b05e900f8
:10aad000f9ff3a000a05e900f6ff3a00e5ff370002
:10aae0002322af00feff370024a2b70000000600bb
:020000040000fa
:08a7f8000000ff000000ff005b
:020000040000fa
:10aaf00050080000d000000000000000000000002e
:00000001FF
